{
  "transactions": [
    {
      "hash": "0x76130adb3a81b86bd32c4e73decda97cd142bdf94afd06b4d88d062199c938ee",
      "transactionType": "CALL",
      "contractName": null,
      "contractAddress": "0xf4e147db314947fc1275a8cbb6cde48c510cd8cf",
      "function": "setTokenConfig(address[],(address,address,uint96,bytes)[])",
      "arguments": [
        "[0x833589fCD6eDb6E08f4c7C32D4f71b54bdA02913, 0x04C0599Ae5A44757c0af6F9eC3b93da8976c150A]",
        "[(0x8B1F5E9101246F337d8277aE5170C3Aa2a810D12, 0x4506A6F208a765Fe8728e7651c552f29E93F6b78, 50, 0x00000000000000000000000027a16dc786820b16e5c9028b75b99f6f604b5d26), (0x6C6C72B148f76DD10fE61956b058e5f356907640, 0x4506A6F208a765Fe8728e7651c552f29E93F6b78, 50, 0x00000000000000000000000004c0599ae5a44757c0af6f9ec3b93da8976c150a)]"
      ],
      "transaction": {
        "from": "0x7d829d50aaf400b8b29b3b311f4ad70ad819dc6e",
        "to": "0xf4e147db314947fc1275a8cbb6cde48c510cd8cf",
        "gas": "0x4f519",
        "value": "0x0",
        "input": "0x19b86590000000000000000000000000000000000000000000000000000000000000004000000000000000000000000000000000000000000000000000000000000000a00000000000000000000000000000000000000000000000000000000000000002000000000000000000000000833589fcd6edb6e08f4c7c32d4f71b54bda0291300000000000000000000000004c0599ae5a44757c0af6f9ec3b93da8976c150a0000000000000000000000000000000000000000000000000000000000000002000000000000000000000000000000000000000000000000000000000000004000000000000000000000000000000000000000000000000000000000000001000000000000000000000000008b1f5e9101246f337d8277ae5170c3aa2a810d120000000000000000000000004506a6f208a765fe8728e7651c552f29e93f6b7800000000000000000000000000000000000000000000000000000000000000320000000000000000000000000000000000000000000000000000000000000080000000000000000000000000000000000000000000000000000000000000002000000000000000000000000027a16dc786820b16e5c9028b75b99f6f604b5d260000000000000000000000006c6c72b148f76dd10fe61956b058e5f3569076400000000000000000000000004506a6f208a765fe8728e7651c552f29e93f6b7800000000000000000000000000000000000000000000000000000000000000320000000000000000000000000000000000000000000000000000000000000080000000000000000000000000000000000000000000000000000000000000002000000000000000000000000004c0599ae5a44757c0af6f9ec3b93da8976c150a",
        "nonce": "0x65",
        "chainId": "0x2105"
      },
      "additionalContracts": [],
      "isFixedGasLimit": false
    }
  ],
  "receipts": [
    {
      "status": "0x1",
      "cumulativeGasUsed": "0x25d24cd",
      "logs": [
        {
          "address": "0xf4e147db314947fc1275a8cbb6cde48c510cd8cf",
          "topics": [
            "0x7469ae09c3436c0a7289c9e6d339d931cce35bcd22c06246cdc9d32869782852"
          ],
          "data": "0x000000000000000000000000000000000000000000000000000000000000004000000000000000000000000000000000000000000000000000000000000000a00000000000000000000000000000000000000000000000000000000000000002000000000000000000000000833589fcd6edb6e08f4c7c32d4f71b54bda0291300000000000000000000000004c0599ae5a44757c0af6f9ec3b93da8976c150a0000000000000000000000000000000000000000000000000000000000000002000000000000000000000000000000000000000000000000000000000000004000000000000000000000000000000000000000000000000000000000000001000000000000000000000000008b1f5e9101246f337d8277ae5170c3aa2a810d120000000000000000000000004506a6f208a765fe8728e7651c552f29e93f6b7800000000000000000000000000000000000000000000000000000000000000320000000000000000000000000000000000000000000000000000000000000080000000000000000000000000000000000000000000000000000000000000002000000000000000000000000027a16dc786820b16e5c9028b75b99f6f604b5d260000000000000000000000006c6c72b148f76dd10fe61956b058e5f3569076400000000000000000000000004506a6f208a765fe8728e7651c552f29e93f6b7800000000000000000000000000000000000000000000000000000000000000320000000000000000000000000000000000000000000000000000000000000080000000000000000000000000000000000000000000000000000000000000002000000000000000000000000004c0599ae5a44757c0af6f9ec3b93da8976c150a",
          "blockHash": "0xc6e5f591a324363426497f94d64afcf2cdd1852abe24912c89908f56a7825869",
          "blockNumber": "0x19fc170",
          "transactionHash": "0x76130adb3a81b86bd32c4e73decda97cd142bdf94afd06b4d88d062199c938ee",
          "transactionIndex": "0x77",
          "logIndex": "0x142",
          "removed": false
        }
      ],
      "logsBloom": "0x00000000000000000000000002000000000000000000000000000000000000000000000000000000000000000000000000000000000040000000000000000000800000000000008000000000000000000000000000000000000000000000000000000000000000000000000000000000000000000000000000000000000000000000000000000000000000000000000000000000000000000000000000000000000000000000000000000000000001000000000000000000000000000000000000000000000000000000000000000000000000000000000000000000000000000000000000000000000000000000000000000000000000000000200000000000",
      "type": "0x2",
      "transactionHash": "0x76130adb3a81b86bd32c4e73decda97cd142bdf94afd06b4d88d062199c938ee",
      "transactionIndex": "0x77",
      "blockHash": "0xc6e5f591a324363426497f94d64afcf2cdd1852abe24912c89908f56a7825869",
      "blockNumber": "0x19fc170",
      "gasUsed": "0x396cf",
      "effectiveGasPrice": "0x343f8d",
      "from": "0x7d829d50aaf400b8b29b3b311f4ad70ad819dc6e",
      "to": "0xf4e147db314947fc1275a8cbb6cde48c510cd8cf",
      "contractAddress": null,
      "l1BaseFeeScalar": "0x8dd",
      "l1BlobBaseFee": "0x40e5b6b8",
      "l1BlobBaseFeeScalar": "0x101c12",
      "l1Fee": "0x445dca7bb3",
      "l1GasPrice": "0x94847e23",
      "l1GasUsed": "0xecc"
    }
  ],
  "libraries": [],
  "pending": [],
  "returns": {},
  "timestamp": 1741283268,
  "chain": 8453,
  "commit": "396a613"
}