{
  "transactions": [
    {
      "hash": "0x23532b8327068409cdfc2fe8e7bbae2ade00ac10b8c5ff83685ad57cb978861c",
      "transactionType": "CALL",
      "contractName": null,
      "contractAddress": "0xde69649e21ddceec86738211dce6f7bb4decd27b",
      "function": "setTokenConfig(address[],(address,address,uint96,bytes)[])",
      "arguments": [
        "[0x833589fCD6eDb6E08f4c7C32D4f71b54bdA02913, 0x04C0599Ae5A44757c0af6F9eC3b93da8976c150A]",
        "[(0x8B1F5E9101246F337d8277aE5170C3Aa2a810D12, 0x06fe42Cf3C63412f1955758ce2798709476a38fd, 50, 0x00000000000000000000000027a16dc786820b16e5c9028b75b99f6f604b5d26), (0x6C6C72B148f76DD10fE61956b058e5f356907640, 0x06fe42Cf3C63412f1955758ce2798709476a38fd, 50, 0x00000000000000000000000004c0599ae5a44757c0af6f9ec3b93da8976c150a)]"
      ],
      "transaction": {
        "from": "0x7d829d50aaf400b8b29b3b311f4ad70ad819dc6e",
        "to": "0xde69649e21ddceec86738211dce6f7bb4decd27b",
        "gas": "0x4f4ed",
        "value": "0x0",
        "input": "0x19b86590000000000000000000000000000000000000000000000000000000000000004000000000000000000000000000000000000000000000000000000000000000a00000000000000000000000000000000000000000000000000000000000000002000000000000000000000000833589fcd6edb6e08f4c7c32d4f71b54bda0291300000000000000000000000004c0599ae5a44757c0af6f9ec3b93da8976c150a0000000000000000000000000000000000000000000000000000000000000002000000000000000000000000000000000000000000000000000000000000004000000000000000000000000000000000000000000000000000000000000001000000000000000000000000008b1f5e9101246f337d8277ae5170c3aa2a810d1200000000000000000000000006fe42cf3c63412f1955758ce2798709476a38fd00000000000000000000000000000000000000000000000000000000000000320000000000000000000000000000000000000000000000000000000000000080000000000000000000000000000000000000000000000000000000000000002000000000000000000000000027a16dc786820b16e5c9028b75b99f6f604b5d260000000000000000000000006c6c72b148f76dd10fe61956b058e5f35690764000000000000000000000000006fe42cf3c63412f1955758ce2798709476a38fd00000000000000000000000000000000000000000000000000000000000000320000000000000000000000000000000000000000000000000000000000000080000000000000000000000000000000000000000000000000000000000000002000000000000000000000000004c0599ae5a44757c0af6f9ec3b93da8976c150a",
        "nonce": "0x75",
        "chainId": "0x2105"
      },
      "additionalContracts": [],
      "isFixedGasLimit": false
    }
  ],
  "receipts": [
    {
      "status": "0x1",
      "cumulativeGasUsed": "0x217f90f",
      "logs": [
        {
          "address": "0xde69649e21ddceec86738211dce6f7bb4decd27b",
          "topics": [
            "0x7469ae09c3436c0a7289c9e6d339d931cce35bcd22c06246cdc9d32869782852"
          ],
          "data": "0x000000000000000000000000000000000000000000000000000000000000004000000000000000000000000000000000000000000000000000000000000000a00000000000000000000000000000000000000000000000000000000000000002000000000000000000000000833589fcd6edb6e08f4c7c32d4f71b54bda0291300000000000000000000000004c0599ae5a44757c0af6f9ec3b93da8976c150a0000000000000000000000000000000000000000000000000000000000000002000000000000000000000000000000000000000000000000000000000000004000000000000000000000000000000000000000000000000000000000000001000000000000000000000000008b1f5e9101246f337d8277ae5170c3aa2a810d1200000000000000000000000006fe42cf3c63412f1955758ce2798709476a38fd00000000000000000000000000000000000000000000000000000000000000320000000000000000000000000000000000000000000000000000000000000080000000000000000000000000000000000000000000000000000000000000002000000000000000000000000027a16dc786820b16e5c9028b75b99f6f604b5d260000000000000000000000006c6c72b148f76dd10fe61956b058e5f35690764000000000000000000000000006fe42cf3c63412f1955758ce2798709476a38fd00000000000000000000000000000000000000000000000000000000000000320000000000000000000000000000000000000000000000000000000000000080000000000000000000000000000000000000000000000000000000000000002000000000000000000000000004c0599ae5a44757c0af6f9ec3b93da8976c150a",
          "blockHash": "0xde8c65df932e996e2caf9fef0f3438b3cc85d61a1d41d035e6835f19db403af0",
          "blockNumber": "0x1a7101a",
          "transactionHash": "0x23532b8327068409cdfc2fe8e7bbae2ade00ac10b8c5ff83685ad57cb978861c",
          "transactionIndex": "0x64",
          "logIndex": "0x185",
          "removed": false
        }
      ],
      "logsBloom": "0x00000000000000000000000000000000000000000000000000000000000000000000000000000000000000000000000000000004000040000000000000000000000000000000000000000000000000000000000000000000000000000000000000000000000000000000000000000000000000000000000000000000000000000000000000000000000000000000000000000000000000000000000000000000000000000000000800000000000001000000000000000000000000000000000000000000000000000000000000000000000000000000000000000000000000000000000000000000000000000000000000000000000002000000200000000000",
      "type": "0x2",
      "transactionHash": "0x23532b8327068409cdfc2fe8e7bbae2ade00ac10b8c5ff83685ad57cb978861c",
      "transactionIndex": "0x64",
      "blockHash": "0xde8c65df932e996e2caf9fef0f3438b3cc85d61a1d41d035e6835f19db403af0",
      "blockNumber": "0x1a7101a",
      "gasUsed": "0x396af",
      "effectiveGasPrice": "0x35ef05",
      "from": "0x7d829d50aaf400b8b29b3b311f4ad70ad819dc6e",
      "to": "0xde69649e21ddceec86738211dce6f7bb4decd27b",
      "contractAddress": null,
      "l1BaseFeeScalar": "0x8dd",
      "l1BlobBaseFee": "0x1f3e2b33d",
      "l1BlobBaseFeeScalar": "0x101c12",
      "l1Fee": "0x1e9699d549f",
      "l1GasPrice": "0x246d2b4d",
      "l1GasUsed": "0xecc"
    }
  ],
  "libraries": [],
  "pending": [],
  "returns": {},
  "timestamp": 1742241049,
  "chain": 8453,
  "commit": "20a128c"
}