{
  "transactions": [
    {
      "hash": "0x32a5181333ff07e6146499a885a6e35e25b81239bed446a2eec739d4d7ef9d92",
      "transactionType": "CALL",
      "contractName": null,
      "contractAddress": "0x9daf8fc0643460bd5ced455db78c0e00d05d82f7",
      "function": "grantRole(bytes32,address)",
      "arguments": [
        "0x8f4f2da22e8ac8f11e15f9fc141cddbb5deea8800186560abb6e68c5496619a9",
        "0x7D829d50aAF400B8B29B3b311F4aD70aD819DC6E"
      ],
      "transaction": {
        "from": "0x7d829d50aaf400b8b29b3b311f4ad70ad819dc6e",
        "to": "0x9daf8fc0643460bd5ced455db78c0e00d05d82f7",
        "gas": "0x1bb60",
        "value": "0x0",
        "input": "0x2f2ff15d8f4f2da22e8ac8f11e15f9fc141cddbb5deea8800186560abb6e68c5496619a90000000000000000000000007d829d50aaf400b8b29b3b311f4ad70ad819dc6e",
        "nonce": "0xe2",
        "chainId": "0x82750"
      },
      "additionalContracts": [],
      "isFixedGasLimit": false
    },
    {
      "hash": "0x0fcd9cb0a184cda4dad4a0da396d81bfa43d7c65ecb43f1b049cd7e927d27470",
      "transactionType": "CALL",
      "contractName": null,
      "contractAddress": "0x9daf8fc0643460bd5ced455db78c0e00d05d82f7",
      "function": "grantRole(bytes32,address)",
      "arguments": [
        "0x5e4bd437d29fad01c10cdcfff414f0d6b0e84b96d2dade88d780d45b5630696b",
        "0x7D829d50aAF400B8B29B3b311F4aD70aD819DC6E"
      ],
      "transaction": {
        "from": "0x7d829d50aaf400b8b29b3b311f4ad70ad819dc6e",
        "to": "0x9daf8fc0643460bd5ced455db78c0e00d05d82f7",
        "gas": "0x1bb60",
        "value": "0x0",
        "input": "0x2f2ff15d5e4bd437d29fad01c10cdcfff414f0d6b0e84b96d2dade88d780d45b5630696b0000000000000000000000007d829d50aaf400b8b29b3b311f4ad70ad819dc6e",
        "nonce": "0xe3",
        "chainId": "0x82750"
      },
      "additionalContracts": [],
      "isFixedGasLimit": false
    },
    {
      "hash": "0x2c7eae7519d982e6c46d1f97d90bd90e13559766bc6c06a306dcaaf71507c31b",
      "transactionType": "CALL",
      "contractName": null,
      "contractAddress": "0x01f0a31698c4d065659b9bdc21b3610292a1c506",
      "function": "approve(address,uint256)",
      "arguments": [
        "0x4506A6F208a765Fe8728e7651c552f29E93F6b78",
        "115792089237316195423570985008687907853269984665640564039457584007913129639935"
      ],
      "transaction": {
        "from": "0x7d829d50aaf400b8b29b3b311f4ad70ad819dc6e",
        "to": "0x01f0a31698c4d065659b9bdc21b3610292a1c506",
        "gas": "0x1174c",
        "value": "0x0",
        "input": "0x095ea7b30000000000000000000000004506a6f208a765fe8728e7651c552f29e93f6b78ffffffffffffffffffffffffffffffffffffffffffffffffffffffffffffffff",
        "nonce": "0xe4",
        "chainId": "0x82750"
      },
      "additionalContracts": [],
      "isFixedGasLimit": false
    },
    {
      "hash": "0x46c1c5a78c88e1452f12a01a839e7877d31221d6a35df8e025cac9e5dabd2fbb",
      "transactionType": "CALL",
      "contractName": null,
      "contractAddress": "0x06efdbff2a14a7c8e15944d1f4a48f9f95f663a4",
      "function": "approve(address,uint256)",
      "arguments": [
        "0x4506A6F208a765Fe8728e7651c552f29E93F6b78",
        "115792089237316195423570985008687907853269984665640564039457584007913129639935"
      ],
      "transaction": {
        "from": "0x7d829d50aaf400b8b29b3b311f4ad70ad819dc6e",
        "to": "0x06efdbff2a14a7c8e15944d1f4a48f9f95f663a4",
        "gas": "0x144c0",
        "value": "0x0",
        "input": "0x095ea7b30000000000000000000000004506a6f208a765fe8728e7651c552f29e93f6b78ffffffffffffffffffffffffffffffffffffffffffffffffffffffffffffffff",
        "nonce": "0xe5",
        "chainId": "0x82750"
      },
      "additionalContracts": [],
      "isFixedGasLimit": false
    },
    {
      "hash": "0xff7e310b5634707a0ef58539ec048c21a534e6128bb9e4495c880d1faebd7791",
      "transactionType": "CALL",
      "contractName": null,
      "contractAddress": "0xd29687c813d741e2f938f4ac377128810e217b1b",
      "function": "approve(address,uint256)",
      "arguments": [
        "0x4506A6F208a765Fe8728e7651c552f29E93F6b78",
        "115792089237316195423570985008687907853269984665640564039457584007913129639935"
      ],
      "transaction": {
        "from": "0x7d829d50aaf400b8b29b3b311f4ad70ad819dc6e",
        "to": "0xd29687c813d741e2f938f4ac377128810e217b1b",
        "gas": "0x1164d",
        "value": "0x0",
        "input": "0x095ea7b30000000000000000000000004506a6f208a765fe8728e7651c552f29e93f6b78ffffffffffffffffffffffffffffffffffffffffffffffffffffffffffffffff",
        "nonce": "0xe6",
        "chainId": "0x82750"
      },
      "additionalContracts": [],
      "isFixedGasLimit": false
    },
    {
      "hash": "0x26ecc4f1175653c8ae1b78e05b186375e828b38c1c704efd666df143e0377702",
      "transactionType": "CALL",
      "contractName": null,
      "contractAddress": "0x4506a6f208a765fe8728e7651c552f29e93f6b78",
      "function": "deposit(address,uint256)",
      "arguments": [
        "0x01f0a31698C4d065659b9bdC21B3610292a1c506",
        "100000000000000000000"
      ],
      "transaction": {
        "from": "0x7d829d50aaf400b8b29b3b311f4ad70ad819dc6e",
        "to": "0x4506a6f208a765fe8728e7651c552f29e93f6b78",
        "gas": "0x22f51",
        "value": "0x0",
        "input": "0x47e7ef2400000000000000000000000001f0a31698c4d065659b9bdc21b3610292a1c5060000000000000000000000000000000000000000000000056bc75e2d63100000",
        "nonce": "0xe7",
        "chainId": "0x82750"
      },
      "additionalContracts": [],
      "isFixedGasLimit": false
    },
    {
      "hash": "0xa2841392956a0608fde90fd5258873e1b9f0ac09da0717e123355ca4bd86be48",
      "transactionType": "CALL",
      "contractName": null,
      "contractAddress": "0x4506a6f208a765fe8728e7651c552f29e93f6b78",
      "function": "deposit(address,uint256)",
      "arguments": [
        "0x06eFdBFf2a14a7c8E15944D1F4A48F9F95F663A4",
        "10000000000"
      ],
      "transaction": {
        "from": "0x7d829d50aaf400b8b29b3b311f4ad70ad819dc6e",
        "to": "0x4506a6f208a765fe8728e7651c552f29e93f6b78",
        "gas": "0x29707",
        "value": "0x0",
        "input": "0x47e7ef2400000000000000000000000006efdbff2a14a7c8e15944d1f4a48f9f95f663a400000000000000000000000000000000000000000000000000000002540be400",
        "nonce": "0xe8",
        "chainId": "0x82750"
      },
      "additionalContracts": [],
      "isFixedGasLimit": false
    },
    {
      "hash": "0xd1bd46418f7fb4e506b32f582e4beccb6d41ed39ee11198991deef34e876356d",
      "transactionType": "CALL",
      "contractName": null,
      "contractAddress": "0x4506a6f208a765fe8728e7651c552f29e93f6b78",
      "function": "deposit(address,uint256)",
      "arguments": [
        "0xd29687c813D741E2F938F4aC377128810E217b1b",
        "10000000000"
      ],
      "transaction": {
        "from": "0x7d829d50aaf400b8b29b3b311f4ad70ad819dc6e",
        "to": "0x4506a6f208a765fe8728e7651c552f29e93f6b78",
        "gas": "0x24891",
        "value": "0x0",
        "input": "0x47e7ef24000000000000000000000000d29687c813d741e2f938f4ac377128810e217b1b00000000000000000000000000000000000000000000000000000002540be400",
        "nonce": "0xe9",
        "chainId": "0x82750"
      },
      "additionalContracts": [],
      "isFixedGasLimit": false
    }
  ],
  "receipts": [
    {
      "status": "0x1",
      "cumulativeGasUsed": "0x12f2a",
      "logs": [
        {
          "address": "0x9daf8fc0643460bd5ced455db78c0e00d05d82f7",
          "topics": [
            "0xaddc47d7e02c95c00ec667676636d772a589ffbf0663cfd7cd4dd3d4758201b8",
            "0x0000000000000000000000007d829d50aaf400b8b29b3b311f4ad70ad819dc6e",
            "0x8f4f2da22e8ac8f11e15f9fc141cddbb5deea8800186560abb6e68c5496619a9",
            "0x0000000000000000000000000000000000000000000000000000000000000001"
          ],
          "data": "0x",
          "blockHash": "0xb68850a73a3a6aa724a2300424b02d65b6c352b8c26beede21888415aed39404",
          "blockNumber": "0xd3a0bc",
          "transactionHash": "0x32a5181333ff07e6146499a885a6e35e25b81239bed446a2eec739d4d7ef9d92",
          "transactionIndex": "0x0",
          "logIndex": "0x0",
          "removed": false
        }
      ],
      "logsBloom": "0x00000000000000000000000000000080000000000001000000000000000000040000000000000000000000000000000000000000000000000000000000040000000000000000000000000000000000000000000000040000000000000000000000000080000000000000000000000000008000000000000000000200000000000000000080000000000000040000000010000000000000000000000000000000000000000000000000000000000000000000000000000000000000000000000000080000000000000000000008000000000000000000000000000000000040200000000000000000000000000000000000000000000000000000000000000000",
      "type": "0x2",
      "transactionHash": "0x32a5181333ff07e6146499a885a6e35e25b81239bed446a2eec739d4d7ef9d92",
      "transactionIndex": "0x0",
      "blockHash": "0xb68850a73a3a6aa724a2300424b02d65b6c352b8c26beede21888415aed39404",
      "blockNumber": "0xd3a0bc",
      "gasUsed": "0x12f2a",
      "effectiveGasPrice": "0x3",
      "blobGasUsed": "0x0",
      "from": "0x7d829d50aaf400b8b29b3b311f4ad70ad819dc6e",
      "to": "0x9daf8fc0643460bd5ced455db78c0e00d05d82f7",
      "contractAddress": null
    },
    {
      "status": "0x1",
      "cumulativeGasUsed": "0x12f2a",
      "logs": [
        {
          "address": "0x9daf8fc0643460bd5ced455db78c0e00d05d82f7",
          "topics": [
            "0xaddc47d7e02c95c00ec667676636d772a589ffbf0663cfd7cd4dd3d4758201b8",
            "0x0000000000000000000000007d829d50aaf400b8b29b3b311f4ad70ad819dc6e",
            "0x5e4bd437d29fad01c10cdcfff414f0d6b0e84b96d2dade88d780d45b5630696b",
            "0x0000000000000000000000000000000000000000000000000000000000000001"
          ],
          "data": "0x",
          "blockHash": "0x498a45246a0f781f660d577a214ed93886d2d2ce6f361af18fc87108c00dc593",
          "blockNumber": "0xd3a0bd",
          "transactionHash": "0x0fcd9cb0a184cda4dad4a0da396d81bfa43d7c65ecb43f1b049cd7e927d27470",
          "transactionIndex": "0x0",
          "logIndex": "0x0",
          "removed": false
        }
      ],
      "logsBloom": "0x00000000000000000000000000000080000000000000000000000000000000000000000000000000000000000000000010000000000040000000000000040000000000000000000000000000000000000000000000040000000000000000000000000080000000000000000000000000008000000000000000000200000000000000000080000000000000040000000000000000000000000000000000000000000080000000000000000000000000000000000000000000000000000000000000080000000000000000000008000000000000000000000000000000000040200000000000000000000000000000000000000000000000000000000000000000",
      "type": "0x2",
      "transactionHash": "0x0fcd9cb0a184cda4dad4a0da396d81bfa43d7c65ecb43f1b049cd7e927d27470",
      "transactionIndex": "0x0",
      "blockHash": "0x498a45246a0f781f660d577a214ed93886d2d2ce6f361af18fc87108c00dc593",
      "blockNumber": "0xd3a0bd",
      "gasUsed": "0x12f2a",
      "effectiveGasPrice": "0x3",
      "blobGasUsed": "0x0",
      "from": "0x7d829d50aaf400b8b29b3b311f4ad70ad819dc6e",
      "to": "0x9daf8fc0643460bd5ced455db78c0e00d05d82f7",
      "contractAddress": null
    },
    {
      "status": "0x1",
      "cumulativeGasUsed": "0xca35",
      "logs": [
        {
          "address": "0x01f0a31698c4d065659b9bdc21b3610292a1c506",
          "topics": [
            "0x8c5be1e5ebec7d5bd14f71427d1e84f3dd0314c0f7b2291e5b200ac8c7c3b925",
            "0x0000000000000000000000007d829d50aaf400b8b29b3b311f4ad70ad819dc6e",
            "0x0000000000000000000000004506a6f208a765fe8728e7651c552f29e93f6b78"
          ],
          "data": "0xffffffffffffffffffffffffffffffffffffffffffffffffffffffffffffffff",
          "blockHash": "0xc2b2234e642018fb94cc8296aaa5516966bc81af094b0b807be3d4af4f2847b9",
          "blockNumber": "0xd3a0be",
          "transactionHash": "0x2c7eae7519d982e6c46d1f97d90bd90e13559766bc6c06a306dcaaf71507c31b",
          "transactionIndex": "0x0",
          "logIndex": "0x0",
          "removed": false
        }
      ],
      "logsBloom": "0x00000000000000000000000000000000000000000000000100000000000000000000000000000000000000000000000000000000000000000000000000200000000000000000000000000000000001000000000000000000000000000000000000000000000000000000000000000080008000000000000000000000000000000000000000000000000000000000000000000000000000000000004000000000020000000000000000000001000000000000000000000000000000000000000000080000000000000000000000000000000000000000000000000000000000200010000000000000000000000080000000000000000000000000000000000000",
      "type": "0x2",
      "transactionHash": "0x2c7eae7519d982e6c46d1f97d90bd90e13559766bc6c06a306dcaaf71507c31b",
      "transactionIndex": "0x0",
      "blockHash": "0xc2b2234e642018fb94cc8296aaa5516966bc81af094b0b807be3d4af4f2847b9",
      "blockNumber": "0xd3a0be",
      "gasUsed": "0xca35",
      "effectiveGasPrice": "0x3",
      "blobGasUsed": "0x0",
      "from": "0x7d829d50aaf400b8b29b3b311f4ad70ad819dc6e",
      "to": "0x01f0a31698c4d065659b9bdc21b3610292a1c506",
      "contractAddress": null
    },
    {
      "status": "0x1",
      "cumulativeGasUsed": "0xeb1e",
      "logs": [
        {
          "address": "0x06efdbff2a14a7c8e15944d1f4a48f9f95f663a4",
          "topics": [
            "0x8c5be1e5ebec7d5bd14f71427d1e84f3dd0314c0f7b2291e5b200ac8c7c3b925",
            "0x0000000000000000000000007d829d50aaf400b8b29b3b311f4ad70ad819dc6e",
            "0x0000000000000000000000004506a6f208a765fe8728e7651c552f29e93f6b78"
          ],
          "data": "0xffffffffffffffffffffffffffffffffffffffffffffffffffffffffffffffff",
          "blockHash": "0x24566170047c1186da1c7987de2d0f8075d74bb1b44ee62d5159f2109005b299",
          "blockNumber": "0xd3a0bf",
          "transactionHash": "0x46c1c5a78c88e1452f12a01a839e7877d31221d6a35df8e025cac9e5dabd2fbb",
          "transactionIndex": "0x0",
          "logIndex": "0x0",
          "removed": false
        }
      ],
      "logsBloom": "0x00000000000000000000000000000000000000000000000000000000000000000000000000000000000000000000000000000000000000000000000000200000000000000000000000000000000001000000000000000000000000000000000000000000000000000000000000000080008000000000000000000000000000000000000000000000000000000000000000000040000000000000000000000000020000000000000000000001000000000000000000000000000000000000000000080000000000000000000000000000000000000000000000000000000000200010000000000000000000000000000000000000000080000000000008000000",
      "type": "0x2",
      "transactionHash": "0x46c1c5a78c88e1452f12a01a839e7877d31221d6a35df8e025cac9e5dabd2fbb",
      "transactionIndex": "0x0",
      "blockHash": "0x24566170047c1186da1c7987de2d0f8075d74bb1b44ee62d5159f2109005b299",
      "blockNumber": "0xd3a0bf",
      "gasUsed": "0xeb1e",
      "effectiveGasPrice": "0x3",
      "blobGasUsed": "0x0",
      "from": "0x7d829d50aaf400b8b29b3b311f4ad70ad819dc6e",
      "to": "0x06efdbff2a14a7c8e15944d1f4a48f9f95f663a4",
      "contractAddress": null
    },
    {
      "status": "0x1",
      "cumulativeGasUsed": "0xc97d",
      "logs": [
        {
          "address": "0xd29687c813d741e2f938f4ac377128810e217b1b",
          "topics": [
            "0x8c5be1e5ebec7d5bd14f71427d1e84f3dd0314c0f7b2291e5b200ac8c7c3b925",
            "0x0000000000000000000000007d829d50aaf400b8b29b3b311f4ad70ad819dc6e",
            "0x0000000000000000000000004506a6f208a765fe8728e7651c552f29e93f6b78"
          ],
          "data": "0xffffffffffffffffffffffffffffffffffffffffffffffffffffffffffffffff",
          "blockHash": "0x3d9dc21dd4aefe45f580569c93ed74ced7f3a2cf68ed3f081ef71249870b8f75",
          "blockNumber": "0xd3a0c0",
          "transactionHash": "0xff7e310b5634707a0ef58539ec048c21a534e6128bb9e4495c880d1faebd7791",
          "transactionIndex": "0x0",
          "logIndex": "0x0",
          "removed": false
        }
      ],
      "logsBloom": "0x00000000000000000000000000000000000000000000000000000000000000000000000000000000000000000000000000000000000000000000000000200000000020000000000000000000000001000000000000000000000000000000000000000000000000000000000000000080008000000000000000000000000000000000000000000000000000000000000000000000000000000000000000000000020000000000000000000001000000000000000000000000000000008000000000080000000000000000000000000000000000000000000000000000000000200010000000000000000000000000400000000000000000000000000000000000",
      "type": "0x2",
      "transactionHash": "0xff7e310b5634707a0ef58539ec048c21a534e6128bb9e4495c880d1faebd7791",
      "transactionIndex": "0x0",
      "blockHash": "0x3d9dc21dd4aefe45f580569c93ed74ced7f3a2cf68ed3f081ef71249870b8f75",
      "blockNumber": "0xd3a0c0",
      "gasUsed": "0xc97d",
      "effectiveGasPrice": "0x3",
      "blobGasUsed": "0x0",
      "from": "0x7d829d50aaf400b8b29b3b311f4ad70ad819dc6e",
      "to": "0xd29687c813d741e2f938f4ac377128810e217b1b",
      "contractAddress": null
    },
    {
      "status": "0x1",
      "cumulativeGasUsed": "0x194f0",
      "logs": [
        {
          "address": "0x01f0a31698c4d065659b9bdc21b3610292a1c506",
          "topics": [
            "0xddf252ad1be2c89b69c2b068fc378daa952ba7f163c4a11628f55a4df523b3ef",
            "0x0000000000000000000000007d829d50aaf400b8b29b3b311f4ad70ad819dc6e",
            "0x0000000000000000000000004506a6f208a765fe8728e7651c552f29e93f6b78"
          ],
          "data": "0x0000000000000000000000000000000000000000000000056bc75e2d63100000",
          "blockHash": "0xf3040006a5d2f2f057803ba6c672d822d0129bfd69898c3de2f70a6a078bca95",
          "blockNumber": "0xd3a0c1",
          "transactionHash": "0x26ecc4f1175653c8ae1b78e05b186375e828b38c1c704efd666df143e0377702",
          "transactionIndex": "0x0",
          "logIndex": "0x0",
          "removed": false
        },
        {
          "address": "0x4506a6f208a765fe8728e7651c552f29e93f6b78",
          "topics": [
            "0xe1fffcc4923d04b559f4d29a8bfc6cda04eb5b0d3c460751c2402c5c5cc9109c",
            "0x00000000000000000000000001f0a31698c4d065659b9bdc21b3610292a1c506"
          ],
          "data": "0x0000000000000000000000000000000000000000000000056bc75e2d63100000",
          "blockHash": "0xf3040006a5d2f2f057803ba6c672d822d0129bfd69898c3de2f70a6a078bca95",
          "blockNumber": "0xd3a0c1",
          "transactionHash": "0x26ecc4f1175653c8ae1b78e05b186375e828b38c1c704efd666df143e0377702",
          "transactionIndex": "0x0",
          "logIndex": "0x1",
          "removed": false
        }
      ],
      "logsBloom": "0x00000000000000000000000000000000000000000000000100000000000000000000000000000008000000000000000000000000000000000000000000000000000000000010000000200008000001000000000000000000000000008000000000000000000000000000000000000080008000000000000000000010000000000000000000000000000000000000000000000001000000000000004000080000000000000000000000000001000000000000000080000000000000000000000000080002000000000000000000000000000000000000000000000000000000200020000000000000000000000080000000000000000000400000000000000000",
      "type": "0x2",
      "transactionHash": "0x26ecc4f1175653c8ae1b78e05b186375e828b38c1c704efd666df143e0377702",
      "transactionIndex": "0x0",
      "blockHash": "0xf3040006a5d2f2f057803ba6c672d822d0129bfd69898c3de2f70a6a078bca95",
      "blockNumber": "0xd3a0c1",
      "gasUsed": "0x194f0",
      "effectiveGasPrice": "0x3",
      "blobGasUsed": "0x0",
      "from": "0x7d829d50aaf400b8b29b3b311f4ad70ad819dc6e",
      "to": "0x4506a6f208a765fe8728e7651c552f29e93f6b78",
      "contractAddress": null
    },
    {
      "status": "0x1",
      "cumulativeGasUsed": "0x1c55b",
      "logs": [
        {
          "address": "0x06efdbff2a14a7c8e15944d1f4a48f9f95f663a4",
          "topics": [
            "0xddf252ad1be2c89b69c2b068fc378daa952ba7f163c4a11628f55a4df523b3ef",
            "0x0000000000000000000000007d829d50aaf400b8b29b3b311f4ad70ad819dc6e",
            "0x0000000000000000000000004506a6f208a765fe8728e7651c552f29e93f6b78"
          ],
          "data": "0x00000000000000000000000000000000000000000000000000000002540be400",
          "blockHash": "0x95c37731226b2f15c997dcd6a0c12d36e104b1f6a3141ef16cd15e060a931b02",
          "blockNumber": "0xd3a0c2",
          "transactionHash": "0xa2841392956a0608fde90fd5258873e1b9f0ac09da0717e123355ca4bd86be48",
          "transactionIndex": "0x0",
          "logIndex": "0x0",
          "removed": false
        },
        {
          "address": "0x4506a6f208a765fe8728e7651c552f29e93f6b78",
          "topics": [
            "0xe1fffcc4923d04b559f4d29a8bfc6cda04eb5b0d3c460751c2402c5c5cc9109c",
            "0x00000000000000000000000006efdbff2a14a7c8e15944d1f4a48f9f95f663a4"
          ],
          "data": "0x00000000000000000000000000000000000000000000000000000002540be400",
          "blockHash": "0x95c37731226b2f15c997dcd6a0c12d36e104b1f6a3141ef16cd15e060a931b02",
          "blockNumber": "0xd3a0c2",
          "transactionHash": "0xa2841392956a0608fde90fd5258873e1b9f0ac09da0717e123355ca4bd86be48",
          "transactionIndex": "0x0",
          "logIndex": "0x1",
          "removed": false
        }
      ],
      "logsBloom": "0x00000000000000000000000000000000000000000000000000000000000000000000000000000008000000000000000000000000000000000000000000000000000000000000000000200008000001000000000000000000000000008000000000000000000000000000000000000080008000000000000000000010000000000000000000000000000000000000000000000041000000000000000000000000000000000000000000000001000000000000000080000000000000000000002000080002000000000000000000000000000400000000000000000000000000200000000000000002000000000000000000000000000080400000000008000000",
      "type": "0x2",
      "transactionHash": "0xa2841392956a0608fde90fd5258873e1b9f0ac09da0717e123355ca4bd86be48",
      "transactionIndex": "0x0",
      "blockHash": "0x95c37731226b2f15c997dcd6a0c12d36e104b1f6a3141ef16cd15e060a931b02",
      "blockNumber": "0xd3a0c2",
      "gasUsed": "0x1c55b",
      "effectiveGasPrice": "0x3",
      "blobGasUsed": "0x0",
      "from": "0x7d829d50aaf400b8b29b3b311f4ad70ad819dc6e",
      "to": "0x4506a6f208a765fe8728e7651c552f29e93f6b78",
      "contractAddress": null
    },
    {
      "status": "0x1",
      "cumulativeGasUsed": "0x1a738",
      "logs": [
        {
          "address": "0xd29687c813d741e2f938f4ac377128810e217b1b",
          "topics": [
            "0xddf252ad1be2c89b69c2b068fc378daa952ba7f163c4a11628f55a4df523b3ef",
            "0x0000000000000000000000007d829d50aaf400b8b29b3b311f4ad70ad819dc6e",
            "0x0000000000000000000000004506a6f208a765fe8728e7651c552f29e93f6b78"
          ],
          "data": "0x00000000000000000000000000000000000000000000000000000002540be400",
          "blockHash": "0xfeef5f28474c6a654b5691ce5235ac57dc773963cd500ac614cfe82349332cd0",
          "blockNumber": "0xd3a0c3",
          "transactionHash": "0xd1bd46418f7fb4e506b32f582e4beccb6d41ed39ee11198991deef34e876356d",
          "transactionIndex": "0x0",
          "logIndex": "0x0",
          "removed": false
        },
        {
          "address": "0x4506a6f208a765fe8728e7651c552f29e93f6b78",
          "topics": [
            "0xe1fffcc4923d04b559f4d29a8bfc6cda04eb5b0d3c460751c2402c5c5cc9109c",
            "0x000000000000000000000000d29687c813d741e2f938f4ac377128810e217b1b"
          ],
          "data": "0x00000000000000000000000000000000000000000000000000000002540be400",
          "blockHash": "0xfeef5f28474c6a654b5691ce5235ac57dc773963cd500ac614cfe82349332cd0",
          "blockNumber": "0xd3a0c3",
          "transactionHash": "0xd1bd46418f7fb4e506b32f582e4beccb6d41ed39ee11198991deef34e876356d",
          "transactionIndex": "0x0",
          "logIndex": "0x1",
          "removed": false
        }
      ],
      "logsBloom": "0x00000000000000000000000000000000000000008000000000000000000000000000000000000008000000000000000000000000000000000000000000000000000020000000000000200008000001000000000000000000000000008000000000000000000000000000000000000080008000000000000000000010000000000000000000000000000000000000000000000001000800000000000000000000000000000000000000000001000000000000000080000000000000008000000000080002000000000000000000000000000000000000000000000000000000200000000000000000000000000000400000000000000000400000000000000800",
      "type": "0x2",
      "transactionHash": "0xd1bd46418f7fb4e506b32f582e4beccb6d41ed39ee11198991deef34e876356d",
      "transactionIndex": "0x0",
      "blockHash": "0xfeef5f28474c6a654b5691ce5235ac57dc773963cd500ac614cfe82349332cd0",
      "blockNumber": "0xd3a0c3",
      "gasUsed": "0x1a738",
      "effectiveGasPrice": "0x3",
      "blobGasUsed": "0x0",
      "from": "0x7d829d50aaf400b8b29b3b311f4ad70ad819dc6e",
      "to": "0x4506a6f208a765fe8728e7651c552f29e93f6b78",
      "contractAddress": null
    }
  ],
  "libraries": [],
  "pending": [],
  "returns": {},
  "timestamp": 1741283061,
  "chain": 534352,
  "commit": "396a613"
}