{
  "transactions": [
    {
      "hash": "0xd85afe445f3a36c7e9757d21b965a3ba0b7b120bd92006682e864131ec95513d",
      "transactionType": "CALL",
      "contractName": null,
      "contractAddress": "0xd8d16be1fc94d0205cf3243bf97bce023142d642",
      "function": "grantRole(bytes32,address)",
      "arguments": [
        "0x8f4f2da22e8ac8f11e15f9fc141cddbb5deea8800186560abb6e68c5496619a9",
        "0x7D829d50aAF400B8B29B3b311F4aD70aD819DC6E"
      ],
      "transaction": {
        "from": "0x7d829d50aaf400b8b29b3b311f4ad70ad819dc6e",
        "to": "0xd8d16be1fc94d0205cf3243bf97bce023142d642",
        "gas": "0x1a2e3",
        "value": "0x0",
        "input": "0x2f2ff15d8f4f2da22e8ac8f11e15f9fc141cddbb5deea8800186560abb6e68c5496619a90000000000000000000000007d829d50aaf400b8b29b3b311f4ad70ad819dc6e",
        "nonce": "0xe6",
        "chainId": "0x82750"
      },
      "additionalContracts": [],
      "isFixedGasLimit": false
    },
    {
      "hash": "0x5bb8d5d8278acc24c3e655ddd74759e37846a3cf7554f57af19950267e5c95eb",
      "transactionType": "CALL",
      "contractName": null,
      "contractAddress": "0xd8d16be1fc94d0205cf3243bf97bce023142d642",
      "function": "grantRole(bytes32,address)",
      "arguments": [
        "0x5e4bd437d29fad01c10cdcfff414f0d6b0e84b96d2dade88d780d45b5630696b",
        "0x7D829d50aAF400B8B29B3b311F4aD70aD819DC6E"
      ],
      "transaction": {
        "from": "0x7d829d50aaf400b8b29b3b311f4ad70ad819dc6e",
        "to": "0xd8d16be1fc94d0205cf3243bf97bce023142d642",
        "gas": "0x1a2e3",
        "value": "0x0",
        "input": "0x2f2ff15d5e4bd437d29fad01c10cdcfff414f0d6b0e84b96d2dade88d780d45b5630696b0000000000000000000000007d829d50aaf400b8b29b3b311f4ad70ad819dc6e",
        "nonce": "0xe7",
        "chainId": "0x82750"
      },
      "additionalContracts": [],
      "isFixedGasLimit": false
    }
  ],
  "receipts": [
    {
      "status": "0x1",
      "cumulativeGasUsed": "0x12f45",
      "logs": [
        {
          "address": "0xd8d16be1fc94d0205cf3243bf97bce023142d642",
          "topics": [
            "0xaddc47d7e02c95c00ec667676636d772a589ffbf0663cfd7cd4dd3d4758201b8",
            "0x0000000000000000000000007d829d50aaf400b8b29b3b311f4ad70ad819dc6e",
            "0x8f4f2da22e8ac8f11e15f9fc141cddbb5deea8800186560abb6e68c5496619a9",
            "0x0000000000000000000000000000000000000000000000000000000000000001"
          ],
          "data": "0x",
          "blockHash": "0xfb160eb61797b432c471be21f10683ea9e07409406e9acfed963c4e704fffc0d",
          "blockNumber": "0xd36378",
          "transactionHash": "0xd85afe445f3a36c7e9757d21b965a3ba0b7b120bd92006682e864131ec95513d",
          "transactionIndex": "0x0",
          "logIndex": "0x0",
          "removed": false
        }
      ],
      "logsBloom": "0x00000000000000000000000000000080000000000001000000000000000002040000000000000000000000000000000000000000000000000000000000040000000000000000000000000000000000000000000000040000000000000000000000000080000000000000000040400000008000000000000000000000000000000000000000000000000000040000000010000000000000000000000000000000000000000000000000000000000000000000000000000000000000000000000000080000000000000000000000000000000000000000000000000000000040200000000000000000000000000000000000000000000000000000000000000000",
      "type": "0x2",
      "transactionHash": "0xd85afe445f3a36c7e9757d21b965a3ba0b7b120bd92006682e864131ec95513d",
      "transactionIndex": "0x0",
      "blockHash": "0xfb160eb61797b432c471be21f10683ea9e07409406e9acfed963c4e704fffc0d",
      "blockNumber": "0xd36378",
      "gasUsed": "0x12f45",
      "effectiveGasPrice": "0x3",
      "blobGasUsed": "0x0",
      "from": "0x7d829d50aaf400b8b29b3b311f4ad70ad819dc6e",
      "to": "0xd8d16be1fc94d0205cf3243bf97bce023142d642",
      "contractAddress": null
    },
    {
      "status": "0x1",
      "cumulativeGasUsed": "0x12f45",
      "logs": [
        {
          "address": "0xd8d16be1fc94d0205cf3243bf97bce023142d642",
          "topics": [
            "0xaddc47d7e02c95c00ec667676636d772a589ffbf0663cfd7cd4dd3d4758201b8",
            "0x0000000000000000000000007d829d50aaf400b8b29b3b311f4ad70ad819dc6e",
            "0x5e4bd437d29fad01c10cdcfff414f0d6b0e84b96d2dade88d780d45b5630696b",
            "0x0000000000000000000000000000000000000000000000000000000000000001"
          ],
          "data": "0x",
          "blockHash": "0x558eeb75e34093303f96f7c0a8219ae28e1149caa255cdb33d7f637ce31f1576",
          "blockNumber": "0xd36379",
          "transactionHash": "0x5bb8d5d8278acc24c3e655ddd74759e37846a3cf7554f57af19950267e5c95eb",
          "transactionIndex": "0x0",
          "logIndex": "0x0",
          "removed": false
        }
      ],
      "logsBloom": "0x00000000000000000000000000000080000000000000000000000000000002000000000000000000000000000000000010000000000040000000000000040000000000000000000000000000000000000000000000040000000000000000000000000080000000000000000040400000008000000000000000000000000000000000000000000000000000040000000000000000000000000000000000000000000080000000000000000000000000000000000000000000000000000000000000080000000000000000000000000000000000000000000000000000000040200000000000000000000000000000000000000000000000000000000000000000",
      "type": "0x2",
      "transactionHash": "0x5bb8d5d8278acc24c3e655ddd74759e37846a3cf7554f57af19950267e5c95eb",
      "transactionIndex": "0x0",
      "blockHash": "0x558eeb75e34093303f96f7c0a8219ae28e1149caa255cdb33d7f637ce31f1576",
      "blockNumber": "0xd36379",
      "gasUsed": "0x12f45",
      "effectiveGasPrice": "0x3",
      "blobGasUsed": "0x0",
      "from": "0x7d829d50aaf400b8b29b3b311f4ad70ad819dc6e",
      "to": "0xd8d16be1fc94d0205cf3243bf97bce023142d642",
      "contractAddress": null
    }
  ],
  "libraries": [],
  "pending": [],
  "returns": {},
  "timestamp": 1741280531,
  "chain": 534352,
  "commit": "396a613"
}