{
  "transactions": [
    {
      "hash": "0xbeb050eabcdb3f5f401eeb494f88096b244100cfcde12d861a5f0e9571595c12",
      "transactionType": "CALL",
      "contractName": null,
      "contractAddress": "0x9daf8fc0643460bd5ced455db78c0e00d05d82f7",
      "function": "grantRole(bytes32,address)",
      "arguments": [
        "0x5e4bd437d29fad01c10cdcfff414f0d6b0e84b96d2dade88d780d45b5630696b",
        "0xD0d7F8a5a86d8271ff87ff24145Cf40CEa9F7A39"
      ],
      "transaction": {
        "from": "0x7d829d50aaf400b8b29b3b311f4ad70ad819dc6e",
        "to": "0x9daf8fc0643460bd5ced455db78c0e00d05d82f7",
        "gas": "0x1d770",
        "value": "0x0",
        "input": "0x2f2ff15d5e4bd437d29fad01c10cdcfff414f0d6b0e84b96d2dade88d780d45b5630696b000000000000000000000000d0d7f8a5a86d8271ff87ff24145cf40cea9f7a39",
        "nonce": "0xea",
        "chainId": "0x82750"
      },
      "additionalContracts": [],
      "isFixedGasLimit": false
    }
  ],
  "receipts": [
    {
      "status": "0x1",
      "cumulativeGasUsed": "0x1425a",
      "logs": [
        {
          "address": "0x9daf8fc0643460bd5ced455db78c0e00d05d82f7",
          "topics": [
            "0xaddc47d7e02c95c00ec667676636d772a589ffbf0663cfd7cd4dd3d4758201b8",
            "0x000000000000000000000000d0d7f8a5a86d8271ff87ff24145cf40cea9f7a39",
            "0x5e4bd437d29fad01c10cdcfff414f0d6b0e84b96d2dade88d780d45b5630696b",
            "0x0000000000000000000000000000000000000000000000000000000000000001"
          ],
          "data": "0x",
          "blockHash": "0x09ddbda8ba261a1ae6f2839b77dbf79a366c91e06c0a954c4aceca8add299197",
          "blockNumber": "0xd3a0c4",
          "transactionHash": "0xbeb050eabcdb3f5f401eeb494f88096b244100cfcde12d861a5f0e9571595c12",
          "transactionIndex": "0x0",
          "logIndex": "0x0",
          "removed": false
        }
      ],
      "logsBloom": "0x00000000000000000000000000000080000000000000000000000000000000000000000000000000000000000000000010000000000040000000000000040000000000000000000000000000000000000000000000040000000000000000000000000080000000000000000000000008000000000000000000000200000000000000000080000000000000040000000000000000000000000000000000000000000080000000000000000000000000000000000000000000000000200000000000000000000000000000000008000000000000000000000000000000000040000000000000000000040000000000000000000000000000000000000000000000",
      "type": "0x2",
      "transactionHash": "0xbeb050eabcdb3f5f401eeb494f88096b244100cfcde12d861a5f0e9571595c12",
      "transactionIndex": "0x0",
      "blockHash": "0x09ddbda8ba261a1ae6f2839b77dbf79a366c91e06c0a954c4aceca8add299197",
      "blockNumber": "0xd3a0c4",
      "gasUsed": "0x1425a",
      "effectiveGasPrice": "0x3",
      "blobGasUsed": "0x0",
      "from": "0x7d829d50aaf400b8b29b3b311f4ad70ad819dc6e",
      "to": "0x9daf8fc0643460bd5ced455db78c0e00d05d82f7",
      "contractAddress": null
    }
  ],
  "libraries": [],
  "pending": [],
  "returns": {},
  "timestamp": 1741283086,
  "chain": 534352,
  "commit": "396a613"
}