{
  "transactions": [
    {
      "hash": "0x0455a648a24075cc745da523a654a14cb5bede552a85160cc4793bdfeb3abcac",
      "transactionType": "CALL",
      "contractName": null,
      "contractAddress": "0xde69649e21ddceec86738211dce6f7bb4decd27b",
      "function": "deployTopUpContract(bytes32)",
      "arguments": [
        "0xf0975c60c5dda99df82c33288f6cb210a068160651a946f6a75b89bc0365177d"
      ],
      "transaction": {
        "from": "0x7d829d50aaf400b8b29b3b311f4ad70ad819dc6e",
        "to": "0xde69649e21ddceec86738211dce6f7bb4decd27b",
        "gas": "0x54ace",
        "value": "0x0",
        "input": "0x760d0f9df0975c60c5dda99df82c33288f6cb210a068160651a946f6a75b89bc0365177d",
        "nonce": "0x46",
        "chainId": "0x1"
      },
      "additionalContracts": [
        {
          "transactionType": "CREATE2",
          "address": "0xa366cc8e5119bcc49af8fbe874c06518a6e45852",
          "initCode": "0x67363d3d37363d34f03d5260086018f3"
        },
        {
          "transactionType": "CREATE",
          "address": "0x59481dd9407e5826c4950f4dbd4f99de2c7e99f4",
          "initCode": "0x60a060405260405161057438038061057483398101604081905261002291610354565b61002c828261003e565b506001600160a01b0316608052610445565b610047826100fb565b6040516001600160a01b038316907f1cf3b03a6cf19fa2baba4df148e9dcabedea7f8a5c07840e207e5c089be95d3e905f90a28051156100ef576100ea826001600160a01b0316635c60da1b6040518163ffffffff1660e01b8152600401602060405180830381865afa1580156100c0573d5f5f3e3d5ffd5b505050506040513d601f19601f820116820180604052508101906100e49190610416565b82610209565b505050565b6100f761027c565b5050565b806001600160a01b03163b5f0361013557604051631933b43b60e21b81526001600160a01b03821660048201526024015b60405180910390fd5b807fa3f0ad74e5423aebfd80d3ef4346578335a9a72aeaee59ff6cb3582b35133d5080546001600160a01b0319166001600160a01b0392831617905560408051635c60da1b60e01b815290515f92841691635c60da1b9160048083019260209291908290030181865afa1580156101ae573d5f5f3e3d5ffd5b505050506040513d601f19601f820116820180604052508101906101d29190610416565b9050806001600160a01b03163b5f036100f757604051634c9c8ce360e01b81526001600160a01b038216600482015260240161012c565b60605f5f846001600160a01b031684604051610225919061042f565b5f60405180830381855af49150503d805f811461025d576040519150601f19603f3d011682016040523d82523d5f602084013e610262565b606091505b50909250905061027385838361029d565b95945050505050565b341561029b5760405163b398979f60e01b815260040160405180910390fd5b565b6060826102b2576102ad826102fc565b6102f5565b81511580156102c957506001600160a01b0384163b155b156102f257604051639996b31560e01b81526001600160a01b038516600482015260240161012c565b50805b9392505050565b80511561030c5780518082602001fd5b60405163d6bda27560e01b815260040160405180910390fd5b80516001600160a01b038116811461033b575f5ffd5b919050565b634e487b7160e01b5f52604160045260245ffd5b5f5f60408385031215610365575f5ffd5b61036e83610325565b60208401519092506001600160401b03811115610389575f5ffd5b8301601f81018513610399575f5ffd5b80516001600160401b038111156103b2576103b2610340565b604051601f8201601f19908116603f011681016001600160401b03811182821017156103e0576103e0610340565b6040528181528282016020018710156103f7575f5ffd5b8160208401602083015e5f602083830101528093505050509250929050565b5f60208284031215610426575f5ffd5b6102f582610325565b5f82518060208501845e5f920191825250919050565b60805161011861045c5f395f602301526101185ff3fe608060405261000c61000e565b005b61001e610019610020565b6100b3565b565b5f7f000000000000000000000000000000000000000000000000000000000000000073ffffffffffffffffffffffffffffffffffffffff16635c60da1b6040518163ffffffff1660e01b8152600401602060405180830381865afa15801561008a573d5f5f3e3d5ffd5b505050506040513d601f19601f820116820180604052508101906100ae91906100d1565b905090565b365f5f375f5f365f845af43d5f5f3e8080156100cd573d5ff35b3d5ffd5b5f602082840312156100e1575f5ffd5b815173ffffffffffffffffffffffffffffffffffffffff81168114610104575f5ffd5b939250505056fea164736f6c634300081c000a000000000000000000000000c3d4bd31e18af93fbae940bc93f9606fcab47a4900000000000000000000000000000000000000000000000000000000000000400000000000000000000000000000000000000000000000000000000000000000"
        }
      ],
      "isFixedGasLimit": false
    }
  ],
  "receipts": [
    {
      "status": "0x1",
      "cumulativeGasUsed": "0xa04f1b",
      "logs": [
        {
          "address": "0x59481dd9407e5826c4950f4dbd4f99de2c7e99f4",
          "topics": [
            "0x1cf3b03a6cf19fa2baba4df148e9dcabedea7f8a5c07840e207e5c089be95d3e",
            "0x000000000000000000000000c3d4bd31e18af93fbae940bc93f9606fcab47a49"
          ],
          "data": "0x",
          "blockHash": "0x49b10211de3862f9631cde0a3fd8efd90608f8c3a98a40e315d0182d0eca517c",
          "blockNumber": "0x151b8ef",
          "transactionHash": "0x0455a648a24075cc745da523a654a14cb5bede552a85160cc4793bdfeb3abcac",
          "transactionIndex": "0x7f",
          "logIndex": "0xf1",
          "removed": false
        },
        {
          "address": "0x59481dd9407e5826c4950f4dbd4f99de2c7e99f4",
          "topics": [
            "0x8be0079c531659141344cd1fd0a4f28419497f9722a3daafe3b4186f6b6457e0",
            "0x0000000000000000000000000000000000000000000000000000000000000000",
            "0x000000000000000000000000de69649e21ddceec86738211dce6f7bb4decd27b"
          ],
          "data": "0x",
          "blockHash": "0x49b10211de3862f9631cde0a3fd8efd90608f8c3a98a40e315d0182d0eca517c",
          "blockNumber": "0x151b8ef",
          "transactionHash": "0x0455a648a24075cc745da523a654a14cb5bede552a85160cc4793bdfeb3abcac",
          "transactionIndex": "0x7f",
          "logIndex": "0xf2",
          "removed": false
        },
        {
          "address": "0xde69649e21ddceec86738211dce6f7bb4decd27b",
          "topics": [
            "0xe5e929a9b46c60a60ab0cda980be1f329138baba443301a6f3d24be721258268"
          ],
          "data": "0x00000000000000000000000059481dd9407e5826c4950f4dbd4f99de2c7e99f4",
          "blockHash": "0x49b10211de3862f9631cde0a3fd8efd90608f8c3a98a40e315d0182d0eca517c",
          "blockNumber": "0x151b8ef",
          "transactionHash": "0x0455a648a24075cc745da523a654a14cb5bede552a85160cc4793bdfeb3abcac",
          "transactionIndex": "0x7f",
          "logIndex": "0xf3",
          "removed": false
        }
      ],
      "logsBloom": "0x00000000000000000000000000000000000000000000000000800000000000000000000000000000000000000000000000010004000000000001000000000000000000000000000000000040001000000001000010000000000000000000000000000000020000000000000002000800000000000000000000000000000000400000000000000000000000000000080000000000000000000080000000000000000000040000000800000000000000010000000000000000000000000100000000008000020000000000000000000000000000000010000000800000000020000000000000000000000000000000000000000000000002000000000000000000",
      "type": "0x2",
      "transactionHash": "0x0455a648a24075cc745da523a654a14cb5bede552a85160cc4793bdfeb3abcac",
      "transactionIndex": "0x7f",
      "blockHash": "0x49b10211de3862f9631cde0a3fd8efd90608f8c3a98a40e315d0182d0eca517c",
      "blockNumber": "0x151b8ef",
      "gasUsed": "0x3d4dc",
      "effectiveGasPrice": "0x237908ea",
      "from": "0x7d829d50aaf400b8b29b3b311f4ad70ad819dc6e",
      "to": "0xde69649e21ddceec86738211dce6f7bb4decd27b",
      "contractAddress": null
    }
  ],
  "libraries": [],
  "pending": [],
  "returns": {},
  "timestamp": 1743014926,
  "chain": 1,
  "commit": "85d0cb7"
}