{
  "transactions": [
    {
      "hash": "0x000387333f4a216346b26506ea9f028783ac96f585729042739101b8fd722b0c",
      "transactionType": "CALL",
      "contractName": null,
      "contractAddress": "0xde69649e21ddceec86738211dce6f7bb4decd27b",
      "function": "deployEtherFiSafe(bytes32,address[],address[],bytes[],uint8)",
      "arguments": [
        "0xa1c2b8080ed4b6f56211e0295659ef87dd454b0a884198c10384f230525d4ee8",
        "[0x7D829d50aAF400B8B29B3b311F4aD70aD819DC6E]",
        "[0xBc5e1a8cdC14b286A8f5F523059cf02A7fFE9A6d, 0x5c540AC09320FB4f473eBc4936F948953B1AEfC7]",
        "[0x00000000000000000000000000000000000000000000000000000002540be40000000000000000000000000000000000000000000000000000000002540be400ffffffffffffffffffffffffffffffffffffffffffffffffffffffffffffb9b0, 0x]",
        "1"
      ],
      "transaction": {
        "from": "0x7d829d50aaf400b8b29b3b311f4ad70ad819dc6e",
        "to": "0xde69649e21ddceec86738211dce6f7bb4decd27b",
        "gas": "0xea487",
        "value": "0x0",
        "input": "0xff024c7ba1c2b8080ed4b6f56211e0295659ef87dd454b0a884198c10384f230525d4ee800000000000000000000000000000000000000000000000000000000000000a000000000000000000000000000000000000000000000000000000000000000e00000000000000000000000000000000000000000000000000000000000000140000000000000000000000000000000000000000000000000000000000000000100000000000000000000000000000000000000000000000000000000000000010000000000000000000000007d829d50aaf400b8b29b3b311f4ad70ad819dc6e0000000000000000000000000000000000000000000000000000000000000002000000000000000000000000bc5e1a8cdc14b286a8f5f523059cf02a7ffe9a6d0000000000000000000000005c540ac09320fb4f473ebc4936f948953b1aefc70000000000000000000000000000000000000000000000000000000000000002000000000000000000000000000000000000000000000000000000000000004000000000000000000000000000000000000000000000000000000000000000c0000000000000000000000000000000000000000000000000000000000000006000000000000000000000000000000000000000000000000000000002540be40000000000000000000000000000000000000000000000000000000002540be400ffffffffffffffffffffffffffffffffffffffffffffffffffffffffffffb9b00000000000000000000000000000000000000000000000000000000000000000",
        "nonce": "0x133",
        "chainId": "0x82750"
      },
      "additionalContracts": [
        {
          "transactionType": "CREATE2",
          "address": "0x8ffcdad48ab0ae1f573cc3f5f558051e6a283f8e",
          "initCode": "0x67363d3d37363d34f03d5260086018f3"
        },
        {
          "transactionType": "CREATE",
          "address": "0xb638bd15b8bf30d77b20f6002947555c85f97067",
          "initCode": "0x60a060405260405161057438038061057483398101604081905261002291610354565b61002c828261003e565b506001600160a01b0316608052610445565b610047826100fb565b6040516001600160a01b038316907f1cf3b03a6cf19fa2baba4df148e9dcabedea7f8a5c07840e207e5c089be95d3e905f90a28051156100ef576100ea826001600160a01b0316635c60da1b6040518163ffffffff1660e01b8152600401602060405180830381865afa1580156100c0573d5f5f3e3d5ffd5b505050506040513d601f19601f820116820180604052508101906100e49190610416565b82610209565b505050565b6100f761027c565b5050565b806001600160a01b03163b5f0361013557604051631933b43b60e21b81526001600160a01b03821660048201526024015b60405180910390fd5b807fa3f0ad74e5423aebfd80d3ef4346578335a9a72aeaee59ff6cb3582b35133d5080546001600160a01b0319166001600160a01b0392831617905560408051635c60da1b60e01b815290515f92841691635c60da1b9160048083019260209291908290030181865afa1580156101ae573d5f5f3e3d5ffd5b505050506040513d601f19601f820116820180604052508101906101d29190610416565b9050806001600160a01b03163b5f036100f757604051634c9c8ce360e01b81526001600160a01b038216600482015260240161012c565b60605f5f846001600160a01b031684604051610225919061042f565b5f60405180830381855af49150503d805f811461025d576040519150601f19603f3d011682016040523d82523d5f602084013e610262565b606091505b50909250905061027385838361029d565b95945050505050565b341561029b5760405163b398979f60e01b815260040160405180910390fd5b565b6060826102b2576102ad826102fc565b6102f5565b81511580156102c957506001600160a01b0384163b155b156102f257604051639996b31560e01b81526001600160a01b038516600482015260240161012c565b50805b9392505050565b80511561030c5780518082602001fd5b60405163d6bda27560e01b815260040160405180910390fd5b80516001600160a01b038116811461033b575f5ffd5b919050565b634e487b7160e01b5f52604160045260245ffd5b5f5f60408385031215610365575f5ffd5b61036e83610325565b60208401519092506001600160401b03811115610389575f5ffd5b8301601f81018513610399575f5ffd5b80516001600160401b038111156103b2576103b2610340565b604051601f8201601f19908116603f011681016001600160401b03811182821017156103e0576103e0610340565b6040528181528282016020018710156103f7575f5ffd5b8160208401602083015e5f602083830101528093505050509250929050565b5f60208284031215610426575f5ffd5b6102f582610325565b5f82518060208501845e5f920191825250919050565b60805161011861045c5f395f602301526101185ff3fe608060405261000c61000e565b005b61001e610019610020565b6100b3565b565b5f7f000000000000000000000000000000000000000000000000000000000000000073ffffffffffffffffffffffffffffffffffffffff16635c60da1b6040518163ffffffff1660e01b8152600401602060405180830381865afa15801561008a573d5f5f3e3d5ffd5b505050506040513d601f19601f820116820180604052508101906100ae91906100d1565b905090565b365f5f375f5f365f845af43d5f5f3e8080156100cd573d5ff35b3d5ffd5b5f602082840312156100e1575f5ffd5b815173ffffffffffffffffffffffffffffffffffffffff81168114610104575f5ffd5b939250505056fea164736f6c634300081c000a000000000000000000000000c3d4bd31e18af93fbae940bc93f9606fcab47a4900000000000000000000000000000000000000000000000000000000000000400000000000000000000000000000000000000000000000000000000000000224e77829ab000000000000000000000000000000000000000000000000000000000000008000000000000000000000000000000000000000000000000000000000000000c00000000000000000000000000000000000000000000000000000000000000120000000000000000000000000000000000000000000000000000000000000000100000000000000000000000000000000000000000000000000000000000000010000000000000000000000007d829d50aaf400b8b29b3b311f4ad70ad819dc6e0000000000000000000000000000000000000000000000000000000000000002000000000000000000000000bc5e1a8cdc14b286a8f5f523059cf02a7ffe9a6d0000000000000000000000005c540ac09320fb4f473ebc4936f948953b1aefc70000000000000000000000000000000000000000000000000000000000000002000000000000000000000000000000000000000000000000000000000000004000000000000000000000000000000000000000000000000000000000000000c0000000000000000000000000000000000000000000000000000000000000006000000000000000000000000000000000000000000000000000000002540be40000000000000000000000000000000000000000000000000000000002540be400ffffffffffffffffffffffffffffffffffffffffffffffffffffffffffffb9b0000000000000000000000000000000000000000000000000000000000000000000000000000000000000000000000000000000000000000000000000"
        }
      ],
      "isFixedGasLimit": false
    }
  ],
  "receipts": [
    {
      "status": "0x1",
      "cumulativeGasUsed": "0xa0319",
      "logs": [
        {
          "address": "0xb638bd15b8bf30d77b20f6002947555c85f97067",
          "topics": [
            "0x1cf3b03a6cf19fa2baba4df148e9dcabedea7f8a5c07840e207e5c089be95d3e",
            "0x000000000000000000000000c3d4bd31e18af93fbae940bc93f9606fcab47a49"
          ],
          "data": "0x",
          "blockHash": "0x5e01eff86fdf39a908cf8f7e60d04b72be42fe24785361d6337926de81478a7f",
          "blockNumber": "0xd71d6e",
          "transactionHash": "0x000387333f4a216346b26506ea9f028783ac96f585729042739101b8fd722b0c",
          "transactionIndex": "0x0",
          "logIndex": "0x0",
          "removed": false
        },
        {
          "address": "0xb638bd15b8bf30d77b20f6002947555c85f97067",
          "topics": [
            "0x28a4f2bc9a2d1e8262aceeb52de887dda6aab13506e563af344f61cc95f1f4aa"
          ],
          "data": "0x00000000000000000000000000000000000000000000000000000000000000000000000000000000000000000000000000000000000000000000000000000001",
          "blockHash": "0x5e01eff86fdf39a908cf8f7e60d04b72be42fe24785361d6337926de81478a7f",
          "blockNumber": "0xd71d6e",
          "transactionHash": "0x000387333f4a216346b26506ea9f028783ac96f585729042739101b8fd722b0c",
          "transactionIndex": "0x0",
          "logIndex": "0x1",
          "removed": false
        },
        {
          "address": "0xb638bd15b8bf30d77b20f6002947555c85f97067",
          "topics": [
            "0xe08e325dc20947840f420f7c361a8cdd6c074d5e577754e222e41ff918ec83ec"
          ],
          "data": "0x0000000000000000000000000000000000000000000000000000000000000040000000000000000000000000000000000000000000000000000000000000008000000000000000000000000000000000000000000000000000000000000000010000000000000000000000007d829d50aaf400b8b29b3b311f4ad70ad819dc6e00000000000000000000000000000000000000000000000000000000000000010000000000000000000000000000000000000000000000000000000000000001",
          "blockHash": "0x5e01eff86fdf39a908cf8f7e60d04b72be42fe24785361d6337926de81478a7f",
          "blockNumber": "0xd71d6e",
          "transactionHash": "0x000387333f4a216346b26506ea9f028783ac96f585729042739101b8fd722b0c",
          "transactionIndex": "0x0",
          "logIndex": "0x2",
          "removed": false
        },
        {
          "address": "0xa322a04d1e2cb44672473740f9f35b057fa29cfb",
          "topics": [
            "0xaddc47d7e02c95c00ec667676636d772a589ffbf0663cfd7cd4dd3d4758201b8",
            "0x0000000000000000000000007d829d50aaf400b8b29b3b311f4ad70ad819dc6e",
            "0xf59cc14f18e008c559c37971d72cd8e02162d97cb50518920d17c9a2a201335e",
            "0x0000000000000000000000000000000000000000000000000000000000000001"
          ],
          "data": "0x",
          "blockHash": "0x5e01eff86fdf39a908cf8f7e60d04b72be42fe24785361d6337926de81478a7f",
          "blockNumber": "0xd71d6e",
          "transactionHash": "0x000387333f4a216346b26506ea9f028783ac96f585729042739101b8fd722b0c",
          "transactionIndex": "0x0",
          "logIndex": "0x3",
          "removed": false
        },
        {
          "address": "0xb638bd15b8bf30d77b20f6002947555c85f97067",
          "topics": [
            "0xb56e25549126f7f4a642a3a8b0df4ec75d7346f58d90543990da797f54c416b2"
          ],
          "data": "0x0000000000000000000000000000000000000000000000000000000000000040000000000000000000000000000000000000000000000000000000000000008000000000000000000000000000000000000000000000000000000000000000010000000000000000000000007d829d50aaf400b8b29b3b311f4ad70ad819dc6e00000000000000000000000000000000000000000000000000000000000000010000000000000000000000000000000000000000000000000000000000000001",
          "blockHash": "0x5e01eff86fdf39a908cf8f7e60d04b72be42fe24785361d6337926de81478a7f",
          "blockNumber": "0xd71d6e",
          "transactionHash": "0x000387333f4a216346b26506ea9f028783ac96f585729042739101b8fd722b0c",
          "transactionIndex": "0x0",
          "logIndex": "0x4",
          "removed": false
        },
        {
          "address": "0xb638bd15b8bf30d77b20f6002947555c85f97067",
          "topics": [
            "0xb5a63fa5098067ef2c54c579cc497500049a4c323feb49f9d704baf2040dbb0b"
          ],
          "data": "0x00000000000000000000000000000000000000000000000000000000000000200000000000000000000000000000000000000000000000000000000000000002000000000000000000000000bc5e1a8cdc14b286a8f5f523059cf02a7ffe9a6d0000000000000000000000005c540ac09320fb4f473ebc4936f948953b1aefc7",
          "blockHash": "0x5e01eff86fdf39a908cf8f7e60d04b72be42fe24785361d6337926de81478a7f",
          "blockNumber": "0xd71d6e",
          "transactionHash": "0x000387333f4a216346b26506ea9f028783ac96f585729042739101b8fd722b0c",
          "transactionIndex": "0x0",
          "logIndex": "0x5",
          "removed": false
        },
        {
          "address": "0xb638bd15b8bf30d77b20f6002947555c85f97067",
          "topics": [
            "0xc7f505b2f371ae2175ee4913f4499e1f2633a7b5936321eed1cdaeb6115181d2"
          ],
          "data": "0x0000000000000000000000000000000000000000000000000000000000000001",
          "blockHash": "0x5e01eff86fdf39a908cf8f7e60d04b72be42fe24785361d6337926de81478a7f",
          "blockNumber": "0xd71d6e",
          "transactionHash": "0x000387333f4a216346b26506ea9f028783ac96f585729042739101b8fd722b0c",
          "transactionIndex": "0x0",
          "logIndex": "0x6",
          "removed": false
        },
        {
          "address": "0xde69649e21ddceec86738211dce6f7bb4decd27b",
          "topics": [
            "0xe5e929a9b46c60a60ab0cda980be1f329138baba443301a6f3d24be721258268"
          ],
          "data": "0x000000000000000000000000b638bd15b8bf30d77b20f6002947555c85f97067",
          "blockHash": "0x5e01eff86fdf39a908cf8f7e60d04b72be42fe24785361d6337926de81478a7f",
          "blockNumber": "0xd71d6e",
          "transactionHash": "0x000387333f4a216346b26506ea9f028783ac96f585729042739101b8fd722b0c",
          "transactionIndex": "0x0",
          "logIndex": "0x7",
          "removed": false
        }
      ],
      "logsBloom": "0x00000000000000000000000000000080000000000000000800000000000080000000000000000000000000000000000000010004000000000000040000040000000000000000000000000000001000000000000010440000000002000000000001000080000804000080000003000000008000000000000000000000000004000000040000000000000800040000080000000000000080000000000000000000000002040000080800000000000000010000000000000000000000000100440000088000000000000000000000000000000000000004000000800000000040200000000000000000200000000800000000000000000002000000000000024000",
      "type": "0x2",
      "transactionHash": "0x000387333f4a216346b26506ea9f028783ac96f585729042739101b8fd722b0c",
      "transactionIndex": "0x0",
      "blockHash": "0x5e01eff86fdf39a908cf8f7e60d04b72be42fe24785361d6337926de81478a7f",
      "blockNumber": "0xd71d6e",
      "gasUsed": "0xa0319",
      "effectiveGasPrice": "0x2cfabba",
      "from": "0x7d829d50aaf400b8b29b3b311f4ad70ad819dc6e",
      "to": "0xde69649e21ddceec86738211dce6f7bb4decd27b",
      "contractAddress": null,
      "l1Fee": "0x4271c197a5"
    }
  ],
  "libraries": [],
  "pending": [],
  "returns": {},
  "timestamp": 1742311685,
  "chain": 534352,
  "commit": "6287aaf"
}