{
  "transactions": [
    {
      "hash": "0x594507845f23828e9a4cf5e09c669c31c4b4311b0be38036d64ee6df47ef8d73",
      "transactionType": "CALL",
      "contractName": null,
      "contractAddress": "0xf4e147db314947fc1275a8cbb6cde48c510cd8cf",
      "function": "deployEtherFiSafe(bytes32,address[],address[],bytes[],uint8)",
      "arguments": [
        "0xa1c2b8080ed4b6f56211e0295659ef87dd454b0a884198c10384f230525d4ee8",
        "[0x7D829d50aAF400B8B29B3b311F4aD70aD819DC6E]",
        "[]",
        "[]",
        "1"
      ],
      "transaction": {
        "from": "0x7d829d50aaf400b8b29b3b311f4ad70ad819dc6e",
        "to": "0xf4e147db314947fc1275a8cbb6cde48c510cd8cf",
        "gas": "0x964c6",
        "value": "0x0",
        "input": "0xff024c7ba1c2b8080ed4b6f56211e0295659ef87dd454b0a884198c10384f230525d4ee800000000000000000000000000000000000000000000000000000000000000a000000000000000000000000000000000000000000000000000000000000000e00000000000000000000000000000000000000000000000000000000000000100000000000000000000000000000000000000000000000000000000000000000100000000000000000000000000000000000000000000000000000000000000010000000000000000000000007d829d50aaf400b8b29b3b311f4ad70ad819dc6e00000000000000000000000000000000000000000000000000000000000000000000000000000000000000000000000000000000000000000000000000000000",
        "nonce": "0xe1",
        "chainId": "0x82750"
      },
      "additionalContracts": [
        {
          "transactionType": "CREATE2",
          "address": "0x59241c50057684776a961d45d4c13543501ddb6c",
          "initCode": "0x67363d3d37363d34f03d5260086018f3"
        },
        {
          "transactionType": "CREATE",
          "address": "0xae663e85c97402d56000c6e21cc770fdec02b5c8",
          "initCode": "0x60a060405260405161057438038061057483398101604081905261002291610354565b61002c828261003e565b506001600160a01b0316608052610445565b610047826100fb565b6040516001600160a01b038316907f1cf3b03a6cf19fa2baba4df148e9dcabedea7f8a5c07840e207e5c089be95d3e905f90a28051156100ef576100ea826001600160a01b0316635c60da1b6040518163ffffffff1660e01b8152600401602060405180830381865afa1580156100c0573d5f5f3e3d5ffd5b505050506040513d601f19601f820116820180604052508101906100e49190610416565b82610209565b505050565b6100f761027c565b5050565b806001600160a01b03163b5f0361013557604051631933b43b60e21b81526001600160a01b03821660048201526024015b60405180910390fd5b807fa3f0ad74e5423aebfd80d3ef4346578335a9a72aeaee59ff6cb3582b35133d5080546001600160a01b0319166001600160a01b0392831617905560408051635c60da1b60e01b815290515f92841691635c60da1b9160048083019260209291908290030181865afa1580156101ae573d5f5f3e3d5ffd5b505050506040513d601f19601f820116820180604052508101906101d29190610416565b9050806001600160a01b03163b5f036100f757604051634c9c8ce360e01b81526001600160a01b038216600482015260240161012c565b60605f5f846001600160a01b031684604051610225919061042f565b5f60405180830381855af49150503d805f811461025d576040519150601f19603f3d011682016040523d82523d5f602084013e610262565b606091505b50909250905061027385838361029d565b95945050505050565b341561029b5760405163b398979f60e01b815260040160405180910390fd5b565b6060826102b2576102ad826102fc565b6102f5565b81511580156102c957506001600160a01b0384163b155b156102f257604051639996b31560e01b81526001600160a01b038516600482015260240161012c565b50805b9392505050565b80511561030c5780518082602001fd5b60405163d6bda27560e01b815260040160405180910390fd5b80516001600160a01b038116811461033b575f5ffd5b919050565b634e487b7160e01b5f52604160045260245ffd5b5f5f60408385031215610365575f5ffd5b61036e83610325565b60208401519092506001600160401b03811115610389575f5ffd5b8301601f81018513610399575f5ffd5b80516001600160401b038111156103b2576103b2610340565b604051601f8201601f19908116603f011681016001600160401b03811182821017156103e0576103e0610340565b6040528181528282016020018710156103f7575f5ffd5b8160208401602083015e5f602083830101528093505050509250929050565b5f60208284031215610426575f5ffd5b6102f582610325565b5f82518060208501845e5f920191825250919050565b60805161011861045c5f395f602301526101185ff3fe608060405261000c61000e565b005b61001e610019610020565b6100b3565b565b5f7f000000000000000000000000000000000000000000000000000000000000000073ffffffffffffffffffffffffffffffffffffffff16635c60da1b6040518163ffffffff1660e01b8152600401602060405180830381865afa15801561008a573d5f5f3e3d5ffd5b505050506040513d601f19601f820116820180604052508101906100ae91906100d1565b905090565b365f5f375f5f365f845af43d5f5f3e8080156100cd573d5ff35b3d5ffd5b5f602082840312156100e1575f5ffd5b815173ffffffffffffffffffffffffffffffffffffffff81168114610104575f5ffd5b939250505056fea164736f6c634300081c000a00000000000000000000000048e1630278d8310c86650405ebfbc110cdf3d1ec00000000000000000000000000000000000000000000000000000000000000400000000000000000000000000000000000000000000000000000000000000104e77829ab000000000000000000000000000000000000000000000000000000000000008000000000000000000000000000000000000000000000000000000000000000c000000000000000000000000000000000000000000000000000000000000000e0000000000000000000000000000000000000000000000000000000000000000100000000000000000000000000000000000000000000000000000000000000010000000000000000000000007d829d50aaf400b8b29b3b311f4ad70ad819dc6e0000000000000000000000000000000000000000000000000000000000000000000000000000000000000000000000000000000000000000000000000000000000000000000000000000000000000000000000000000000000000000"
        }
      ],
      "isFixedGasLimit": false
    }
  ],
  "receipts": [
    {
      "status": "0x1",
      "cumulativeGasUsed": "0x66c4b",
      "logs": [
        {
          "address": "0xae663e85c97402d56000c6e21cc770fdec02b5c8",
          "topics": [
            "0x1cf3b03a6cf19fa2baba4df148e9dcabedea7f8a5c07840e207e5c089be95d3e",
            "0x00000000000000000000000048e1630278d8310c86650405ebfbc110cdf3d1ec"
          ],
          "data": "0x",
          "blockHash": "0xd4abb76a43d9ce757a640fdf068c0ee7134543e72080d73b108b64a90ba17a30",
          "blockNumber": "0xd36370",
          "transactionHash": "0x594507845f23828e9a4cf5e09c669c31c4b4311b0be38036d64ee6df47ef8d73",
          "transactionIndex": "0x0",
          "logIndex": "0x0",
          "removed": false
        },
        {
          "address": "0xae663e85c97402d56000c6e21cc770fdec02b5c8",
          "topics": [
            "0x28a4f2bc9a2d1e8262aceeb52de887dda6aab13506e563af344f61cc95f1f4aa"
          ],
          "data": "0x00000000000000000000000000000000000000000000000000000000000000000000000000000000000000000000000000000000000000000000000000000001",
          "blockHash": "0xd4abb76a43d9ce757a640fdf068c0ee7134543e72080d73b108b64a90ba17a30",
          "blockNumber": "0xd36370",
          "transactionHash": "0x594507845f23828e9a4cf5e09c669c31c4b4311b0be38036d64ee6df47ef8d73",
          "transactionIndex": "0x0",
          "logIndex": "0x1",
          "removed": false
        },
        {
          "address": "0xae663e85c97402d56000c6e21cc770fdec02b5c8",
          "topics": [
            "0xe08e325dc20947840f420f7c361a8cdd6c074d5e577754e222e41ff918ec83ec"
          ],
          "data": "0x0000000000000000000000000000000000000000000000000000000000000040000000000000000000000000000000000000000000000000000000000000008000000000000000000000000000000000000000000000000000000000000000010000000000000000000000007d829d50aaf400b8b29b3b311f4ad70ad819dc6e00000000000000000000000000000000000000000000000000000000000000010000000000000000000000000000000000000000000000000000000000000001",
          "blockHash": "0xd4abb76a43d9ce757a640fdf068c0ee7134543e72080d73b108b64a90ba17a30",
          "blockNumber": "0xd36370",
          "transactionHash": "0x594507845f23828e9a4cf5e09c669c31c4b4311b0be38036d64ee6df47ef8d73",
          "transactionIndex": "0x0",
          "logIndex": "0x2",
          "removed": false
        },
        {
          "address": "0xd8d16be1fc94d0205cf3243bf97bce023142d642",
          "topics": [
            "0xaddc47d7e02c95c00ec667676636d772a589ffbf0663cfd7cd4dd3d4758201b8",
            "0x0000000000000000000000007d829d50aaf400b8b29b3b311f4ad70ad819dc6e",
            "0x128aef19f2ab34efdbfaeafd339e81b39dae2e1cf6804c588e9ea02997f803b1",
            "0x0000000000000000000000000000000000000000000000000000000000000001"
          ],
          "data": "0x",
          "blockHash": "0xd4abb76a43d9ce757a640fdf068c0ee7134543e72080d73b108b64a90ba17a30",
          "blockNumber": "0xd36370",
          "transactionHash": "0x594507845f23828e9a4cf5e09c669c31c4b4311b0be38036d64ee6df47ef8d73",
          "transactionIndex": "0x0",
          "logIndex": "0x3",
          "removed": false
        },
        {
          "address": "0xae663e85c97402d56000c6e21cc770fdec02b5c8",
          "topics": [
            "0xb56e25549126f7f4a642a3a8b0df4ec75d7346f58d90543990da797f54c416b2"
          ],
          "data": "0x0000000000000000000000000000000000000000000000000000000000000040000000000000000000000000000000000000000000000000000000000000008000000000000000000000000000000000000000000000000000000000000000010000000000000000000000007d829d50aaf400b8b29b3b311f4ad70ad819dc6e00000000000000000000000000000000000000000000000000000000000000010000000000000000000000000000000000000000000000000000000000000001",
          "blockHash": "0xd4abb76a43d9ce757a640fdf068c0ee7134543e72080d73b108b64a90ba17a30",
          "blockNumber": "0xd36370",
          "transactionHash": "0x594507845f23828e9a4cf5e09c669c31c4b4311b0be38036d64ee6df47ef8d73",
          "transactionIndex": "0x0",
          "logIndex": "0x4",
          "removed": false
        },
        {
          "address": "0xae663e85c97402d56000c6e21cc770fdec02b5c8",
          "topics": [
            "0xc7f505b2f371ae2175ee4913f4499e1f2633a7b5936321eed1cdaeb6115181d2"
          ],
          "data": "0x0000000000000000000000000000000000000000000000000000000000000001",
          "blockHash": "0xd4abb76a43d9ce757a640fdf068c0ee7134543e72080d73b108b64a90ba17a30",
          "blockNumber": "0xd36370",
          "transactionHash": "0x594507845f23828e9a4cf5e09c669c31c4b4311b0be38036d64ee6df47ef8d73",
          "transactionIndex": "0x0",
          "logIndex": "0x5",
          "removed": false
        },
        {
          "address": "0xf4e147db314947fc1275a8cbb6cde48c510cd8cf",
          "topics": [
            "0xe5e929a9b46c60a60ab0cda980be1f329138baba443301a6f3d24be721258268"
          ],
          "data": "0x000000000000000000000000ae663e85c97402d56000c6e21cc770fdec02b5c8",
          "blockHash": "0xd4abb76a43d9ce757a640fdf068c0ee7134543e72080d73b108b64a90ba17a30",
          "blockNumber": "0xd36370",
          "transactionHash": "0x594507845f23828e9a4cf5e09c669c31c4b4311b0be38036d64ee6df47ef8d73",
          "transactionIndex": "0x0",
          "logIndex": "0x6",
          "removed": false
        }
      ],
      "logsBloom": "0x0000000000000000000000000200008000000000000000080000000000008300000001000000000000000000000008000000000000000000000000000004000080000000000000800040000000100000000000001044000000000200000000100000008000080000000000004140000000900000000000000000000000000000000000000000000000080004000008000000000000008000000000000000000000000204000000000000000000000001000000000000000000000000000004000008c000000020000000000000000000000000000004000000800000000040200000000000800000000000000000000000000000000000000000000000000000",
      "type": "0x2",
      "transactionHash": "0x594507845f23828e9a4cf5e09c669c31c4b4311b0be38036d64ee6df47ef8d73",
      "transactionIndex": "0x0",
      "blockHash": "0xd4abb76a43d9ce757a640fdf068c0ee7134543e72080d73b108b64a90ba17a30",
      "blockNumber": "0xd36370",
      "gasUsed": "0x66c4b",
      "effectiveGasPrice": "0x3",
      "blobGasUsed": "0x0",
      "from": "0x7d829d50aaf400b8b29b3b311f4ad70ad819dc6e",
      "to": "0xf4e147db314947fc1275a8cbb6cde48c510cd8cf",
      "contractAddress": null
    }
  ],
  "libraries": [],
  "pending": [],
  "returns": {},
  "timestamp": 1741220152,
  "chain": 534352,
  "commit": "d476105"
}