{
  "transactions": [
    {
      "hash": "0xbfe3097e1bc76e981fe89d136069bd67b8517248c5e51d2de821a5f88c64e9c0",
      "transactionType": "CALL",
      "contractName": null,
      "contractAddress": "0xf4e147db314947fc1275a8cbb6cde48c510cd8cf",
      "function": "setTokenConfig(address[],(address,address,uint96,bytes)[])",
      "arguments": [
        "[0xA0b86991c6218b36c1d19D4a2e9Eb0cE3606eB48, 0xCd5fE23C85820F7B72D0926FC9b05b43E359b7ee]",
        "[(0x998425e6e5181DeCfA3971251bDCA4a669Ef0EAC, 0x3a6A724595184dda4be69dB1Ce726F2Ac3D66B87, 50, 0x000000000000000000000000c026395860db2d07ee33e05fe50ed7bd583189c7), (0x3E0ccbce6c3beC4826397005c877BE66C39D9912, 0x3a6A724595184dda4be69dB1Ce726F2Ac3D66B87, 50, 0x000000000000000000000000cd2eb13d6831d4602d80e5db9230a57596cdca63)]"
      ],
      "transaction": {
        "from": "0x8d5aac5d3d5cda4c404fa7ee31b0822b648bb150",
        "to": "0xf4e147db314947fc1275a8cbb6cde48c510cd8cf",
        "gas": "0x5b52e",
        "value": "0x0",
        "input": "0x19b86590000000000000000000000000000000000000000000000000000000000000004000000000000000000000000000000000000000000000000000000000000000a00000000000000000000000000000000000000000000000000000000000000002000000000000000000000000a0b86991c6218b36c1d19d4a2e9eb0ce3606eb48000000000000000000000000cd5fe23c85820f7b72d0926fc9b05b43e359b7ee000000000000000000000000000000000000000000000000000000000000000200000000000000000000000000000000000000000000000000000000000000400000000000000000000000000000000000000000000000000000000000000100000000000000000000000000998425e6e5181decfa3971251bdca4a669ef0eac0000000000000000000000003a6a724595184dda4be69db1ce726f2ac3d66b87000000000000000000000000000000000000000000000000000000000000003200000000000000000000000000000000000000000000000000000000000000800000000000000000000000000000000000000000000000000000000000000020000000000000000000000000c026395860db2d07ee33e05fe50ed7bd583189c70000000000000000000000003e0ccbce6c3bec4826397005c877be66c39d99120000000000000000000000003a6a724595184dda4be69db1ce726f2ac3d66b87000000000000000000000000000000000000000000000000000000000000003200000000000000000000000000000000000000000000000000000000000000800000000000000000000000000000000000000000000000000000000000000020000000000000000000000000cd2eb13d6831d4602d80e5db9230a57596cdca63",
        "nonce": "0x95",
        "chainId": "0x1"
      },
      "additionalContracts": [],
      "isFixedGasLimit": false
    }
  ],
  "receipts": [
    {
      "status": "0x1",
      "cumulativeGasUsed": "0xcc4708",
      "logs": [
        {
          "address": "0xf4e147db314947fc1275a8cbb6cde48c510cd8cf",
          "topics": [
            "0x7469ae09c3436c0a7289c9e6d339d931cce35bcd22c06246cdc9d32869782852"
          ],
          "data": "0x000000000000000000000000000000000000000000000000000000000000004000000000000000000000000000000000000000000000000000000000000000a00000000000000000000000000000000000000000000000000000000000000002000000000000000000000000a0b86991c6218b36c1d19d4a2e9eb0ce3606eb48000000000000000000000000cd5fe23c85820f7b72d0926fc9b05b43e359b7ee000000000000000000000000000000000000000000000000000000000000000200000000000000000000000000000000000000000000000000000000000000400000000000000000000000000000000000000000000000000000000000000100000000000000000000000000998425e6e5181decfa3971251bdca4a669ef0eac0000000000000000000000003a6a724595184dda4be69db1ce726f2ac3d66b87000000000000000000000000000000000000000000000000000000000000003200000000000000000000000000000000000000000000000000000000000000800000000000000000000000000000000000000000000000000000000000000020000000000000000000000000c026395860db2d07ee33e05fe50ed7bd583189c70000000000000000000000003e0ccbce6c3bec4826397005c877be66c39d99120000000000000000000000003a6a724595184dda4be69db1ce726f2ac3d66b87000000000000000000000000000000000000000000000000000000000000003200000000000000000000000000000000000000000000000000000000000000800000000000000000000000000000000000000000000000000000000000000020000000000000000000000000cd2eb13d6831d4602d80e5db9230a57596cdca63",
          "blockHash": "0x9f423053c29ee51df1643adcacb0b46a41467f8dec9a9ce4a4280423d63b0db3",
          "blockNumber": "0x1519a79",
          "transactionHash": "0xbfe3097e1bc76e981fe89d136069bd67b8517248c5e51d2de821a5f88c64e9c0",
          "transactionIndex": "0x74",
          "logIndex": "0x166",
          "removed": false
        }
      ],
      "logsBloom": "0x00000000000000000000000002000000000000000000000000000000000000000000000000000000000000000000000000000000000040000000000000000000800000000000008000000000000000000000000000000000000000000000000000000000000000000000000000000000000000000000000000000000000000000000000000000000000000000000000000000000000000000000000000000000000000000000000000000000000001000000000000000000000000000000000000000000000000000000000000000000000000000000000000000000000000000000000000000000000000000000000000000000000000000000200000000000",
      "type": "0x2",
      "transactionHash": "0xbfe3097e1bc76e981fe89d136069bd67b8517248c5e51d2de821a5f88c64e9c0",
      "transactionIndex": "0x74",
      "blockHash": "0x9f423053c29ee51df1643adcacb0b46a41467f8dec9a9ce4a4280423d63b0db3",
      "blockNumber": "0x1519a79",
      "gasUsed": "0x3e719",
      "effectiveGasPrice": "0x1cc08245",
      "from": "0x8d5aac5d3d5cda4c404fa7ee31b0822b648bb150",
      "to": "0xf4e147db314947fc1275a8cbb6cde48c510cd8cf",
      "contractAddress": null
    }
  ],
  "libraries": [],
  "pending": [],
  "returns": {},
  "timestamp": 1742920933,
  "chain": 1,
  "commit": "6ff46df"
}